:0400000007EF00F016
:0A00080044824EED09F06FEF0CF09A
:10080000005074733A3030303020202020202020D7
:1008100020004E4F564F205245434F524445212011
:10082000202000417065727465204F202853746148
:100830007274290056656C6F6369646164653A205F
:100840000041434552544F2100204552524F210050
:10085000202D3E284F29005074733A20004D6178B6
:0D0860003A20002046494D210025200000CF
:10086E0093689494000E956E000E966E0E0EC16EE9
:10087E008A0EC06E010EC26EF19CF19A000E01013D
:10088E006F6F000E6E6F6FBF56EF04F06F5109E180
:10089E003E0E6E5DD8A056EF04F058EF04F05CEFFC
:1008AE0004F0CCEF04F0CCEF04F06FBF6AEF04F06D
:1008BE006F5107E10E0E6E5DD8B068EF04F06AEF6F
:1008CE0004F074EF04F09E0E6E25D96E000E6F21AB
:1008DE00DA6E000EDF6E92EF04F0F20E0001F46F8E
:1008EE00FF0EF56F6EC1F6F06FC1F7F0F451F627FB
:1008FE00F551F723300EF625D96E010EF721DA6E7B
:10090E009E0E01016E25E16E000E6F21E26EDFCFAD
:10091E00E7FF92EF04F06FBFA0EF04F06F5107E115
:10092E00300E6E5DD8B09EEF04F0A0EF04F0B0EF85
:10093E0004F0000E6E25D96E010E6F21DA6E600E78
:10094E006E25E16E000E6F21E26EDFCFE7FFBAEF8C
:10095E0004F0600E6E25D96E000E6F21DA6E000E59
:10096E00DF6EBAEF04F06E4B6F2B6FBFC8EF04F063
:10097E006F5109E13E0E6E5DD8A0C8EF04F0CAEFCC
:10098E0004F05CEF04F0CCEF04F0280E00EC0AF05B
:10099E00010E5CEC0EF00D0E0001F46FFB0EE82E56
:1009AE00FED7F42FFCD700D00C0E5CEC0EF0400EF0
:1009BE005CEC0EF0000E0101656F000E646F65BFFA
:1009CE00F2EF04F0655109E1080E645DD8A0F2EF74
:1009DE0004F0F4EF04F0F8EF04F014EF05F014EF68
:1009EE0005F03C0E6425D96E000E6521DA6EDF50DF
:1009FE003BEC0EF00101644B652B65BF10EF05F06B
:100A0E00655109E1080E645DD8A010EF05F012EFF4
:100A1E0005F0F8EF04F014EF05F0000E676F000E0E
:100A2E00666F67BF24EF05F0675109E1080E665D3A
:100A3E00D8A024EF05F026EF05F02AEF05F046EFDB
:100A4E0005F046EF05F0EC0E6625D96E000E672117
:100A5E00DA6EDF503BEC0EF00101664B672B67BF81
:100A6E0042EF05F0675109E1080E665DD8A042EF2E
:100A7E0005F044EF05F02AEF05F046EF05F0800E85
:100A8E005CEC0EF0010E95EC0EF00001F46FF451DB
:100A9E00F66FF56B000E95EC0EF00001F76FF75147
:100AAE00F511326EF651336E322806E13328D8A492
:100ABE0063EF05F065EF05F06FEF05F0000E336E96
:100ACE00000E326E6FEF05F06FEF05F06FEF05F071
:100ADE0081A074EF05F076EF05F06FEF05F078EF7B
:100AEE0005F0020E0001F56F450EF46FA90EE82E0B
:100AFE00FED7F42FFCD7F52FFAD700D0000E376EA5
:100B0E00000E366E000E356E000E346E000E3B6E0D
:100B1E00000E3A6E000E396E000E0101696F000E66
:100B2E00686F69BFA4EF05F0695109E1100E685DA9
:100B3E00D8A0A4EF05F0A6EF05F0AAEF05F0C4EFDC
:100B4E0005F0C4EF05F0DC0E6825D96E000E6921A4
:100B5E00DA6E000EDF6E684B692B69BFC0EF05F0D1
:100B6E00695109E1100E685DD8A0C0EF05F0C2EF23
:100B7E0005F0AAEF05F0C4EF05F0010E5CEC0EF0E7
:100B8E000D0E0001F46FFB0EE82EFED7F42FFCD7EE
:100B9E0000D0C00E5CEC0EF0230E1A6E080E1B6E0B
:100BAE009DEC0DF070EF06F07DEC0EF019C060F1CB
:100BBE001AC061F160C119F061C11AF01B6A1C6A9A
:100BCE00280E1D6E000E1E6E000E1F6E000E206E85
:100BDE0034EC0DF019C025F01AC026F01BC027F01A
:100BEE001CC028F0FF0E296E030E2A6E000E2B6E0F
:100BFE00000E2C6E85EC0BF02550BE0F386E60C1CA
:100C0E0019F061C11AF01B6A1C6A630E1D6E000E8C
:100C1E001E6E000E1F6E000E206E34EC0DF019C00D
:100C2E0025F01AC026F01BC027F01CC028F0FF0EBE
:100C3E00296E030E2A6E000E2B6E000E2C6E85ECA6
:100C4E000BF025C062F126C063F1800E5CEC0EF055
:100C5E00340E1A6E080E1B6E9DEC0DF0000E1C6EFF
:100C6E000A0E1B6E62C119F063C11AF0A3EC0AF0F2
:100C7E0019C021F01AC022F0000E246E0A0E236E47
:100C8E0019EC0BF02150300F3BEC0EF062C121F04D
:100C9E0063C122F0000E246E0A0E236E19EC0BF0C7
:100CAE002150300F3BEC0EF0690E1A6E080E1B6EC3
:100CBE009DEC0DF0030E0001F56F8A0EF46F550ECC
:100CCE00E82EFED7F42FFCD7F52FFAD700D070EF11
:100CDE0006F081B075EF06F077EF06F0DBEF05F06A
:100CEE0079EF06F0010EE1EC0BF00D0E0001F56F41
:100CFE00AF0EF46FB60EE82EFED7F42FFCD7F52FFD
:100D0E00FAD700F0010E5CEC0EF00D0E0001F46F40
:100D1E00FB0EE82EFED7F42FFCD700D0800E5CEC35
:100D2E000EF0010E1A6E080E1B6E9DEC0DF0F29277
:100D3E00F090F294D09EF28AF288F086F28CF28EC7
:100D4E00070ED56ED58E19EF08F03A04D8A4B2EF7F
:100D5E0006F0B4EF06F037EF07F0000E3A6E840E91
:100D6E005CEC0EF0030E1C6EE80E1B6E34C019F018
:100D7E0035C01AF0B4EC0CF019C020F01AC021F0F6
:100D8E00000E236E0A0E226EF8EC0CF02050300F7F
:100D9E003BEC0EF0000E1C6E640E1B6E34C019F090
:100DAE0035C01AF0B4EC0CF019C020F01AC021F0C6
:100DBE00000E236E0A0E226EF8EC0CF02050300F4F
:100DCE003BEC0EF0000E1C6E0A0E1B6E34C019F0BA
:100DDE0035C01AF0B4EC0CF019C020F01AC021F096
:100DEE00000E236E0A0E226EF8EC0CF02050300F1F
:100DFE003BEC0EF034C020F035C021F0000E236E17
:100E0E000A0E226EF8EC0CF02050300F3BEC0EF078
:100E1E00890E5CEC0EF03904D8A418EF07F01AEF27
:100E2E0007F022EF07F0410E1A6E080E1B6E9DECB6
:100E3E000DF037EF07F0020E3918D8A429EF07F09E
:100E4E002BEF07F037EF07F0490E1A6E080E1B6EE8
:100E5E009DEC0DF037EF07F037EF07F037EF07F0A7
:100E6E003B04D8A43DEF07F03FEF07F019EF08F071
:100E7E00000E3B6E9E0E3624D96E000E3720DA6EB3
:100E8E00DF50D8B44DEF07F04FEF07F068EF07F0E3
:100E9E00070ECA6E0C0EBD6E9E0E3624D96E000E57
:100EAE003720DA6EDF50CB6ECBCF19F01A6A000EF8
:100EBE001C6E020E1B6EA3EC0AF01950BE6E6AEF8A
:100ECE0007F0000EBE6E000E01016B6F010E6A6F11
:100EDE006BBF7BEF07F06B5109E10F0E6A5DD8A077
:100EEE007BEF07F07DEF07F081EF07F0ABEF07F038
:100EFE00ABEF07F0010E6A250001F46F000E010141
:100F0E006B210001F56FDC0EF425D96E000EF52174
:100F1E00DA6EDC0E01016A25E16E000E6B21E26EC7
:100F2E00DFCFE7FF6A4B6B2B6BBFA7EF07F06B5161
:100F3E0009E10F0E6A5DD8A0A7EF07F0A9EF07F041
:100F4E0081EF07F0ABEF07F0600E3624D96E000E7E
:100F5E003720DA6EDF500001EB6F364A372AC00EAB
:100F6E005CEC0EF03E0E3BEC0EF0000E01016D6FD0
:100F7E00010E6C6F6DBFCDEF07F06D5109E1100ED4
:100F8E006C5DD8A0CDEF07F0CFEF07F0D3EF07F0F1
:100F9E0019EF08F019EF08F0DC0E6C25D96E000E73
:100FAE006D21DA6EDE04D8A4DFEF07F0E1EF07F073
:100FBE00E6EF07F0000E3BEC0EF002EF08F0DC0E51
:100FCE0001016C25D96E000E6D21DA6E020EDE184F
:100FDE00D8A4F4EF07F0F6EF07F0FBEF07F0010EE1
:100FEE003BEC0EF002EF08F0200E3BEC0EF002EFA1
:100FFE0008F002EF08F001016C4B6D2B6DBF11EF85
:10100E0008F06D5109E1100E6C5DD8A011EF08F0DB
:10101E0013EF08F0D3EF07F019EF08F019EF08F00F
:10102E0019EF08F037BE25EF08F0375009E13E0EF4
:10103E00365CD8A025EF08F027EF08F0ACEF06F0ED
:10104E00D59EF29E000EBE6E010E5CEC0EF00D0EE5
:10105E000001F46FFB0EE82EFED7F42FFCD700D064
:10106E003450325C35503358D8B040EF08F042EF70
:10107E0008F05BEF08F034C032F035C033F034C006
:10108E0019F0000EF7EC0DF03550196E010EF7EC5D
:10109E000DF0800E5CEC0EF0120E1A6E080E1B6E2A
:1010AE009DEC0DF0C0EF08F0800E5CEC0EF0570ECC
:1010BE001A6E080E1B6E9DEC0DF0030E1C6EE80EE4
:1010CE001B6E34C019F035C01AF0B4EC0CF019C018
:1010DE0020F01AC021F0000E236E0A0E226EF8ECDC
:1010EE000CF02050300F3BEC0EF0000E1C6E640E18
:1010FE001B6E34C019F035C01AF0B4EC0CF019C0E8
:10110E0020F01AC021F0000E236E0A0E226EF8ECAB
:10111E000CF02050300F3BEC0EF0000E1C6E0A0E41
:10112E001B6E34C019F035C01AF0B4EC0CF019C0B7
:10113E0020F01AC021F0000E236E0A0E226EF8EC7B
:10114E000CF02050300F3BEC0EF034C020F035C0C8
:10115E0021F0000E236E0A0E226EF8EC0CF02050D9
:10116E00300F3BEC0EF0630E1A6E080E1B6E9DECEC
:10117E000DF0C00E5CEC0EF05D0E1A6E080E1B6EBE
:10118E009DEC0DF0030E1C6EE80E1B6E32C019F0B6
:10119E0033C01AF0B4EC0CF019C020F01AC021F0D4
:1011AE00000E236E0A0E226EF8EC0CF02050300F5B
:1011BE003BEC0EF0000E1C6E640E1B6E32C019F06E
:1011CE0033C01AF0B4EC0CF019C020F01AC021F0A4
:1011DE00000E236E0A0E226EF8EC0CF02050300F2B
:1011EE003BEC0EF0000E1C6E0A0E1B6E32C019F098
:1011FE0033C01AF0B4EC0CF019C020F01AC021F074
:10120E00000E236E0A0E226EF8EC0CF02050300FFA
:10121E003BEC0EF032C020F033C021F0000E236EF6
:10122E000A0E226EF8EC0CF02050300F3BEC0EF054
:10123E00500E1A6E080E1B6E9DEC0DF027EF09F086
:10124E0081A02CEF09F02EEF09F027EF09F030EF17
:10125E0009F0020E0001F56F450EF46FA90EE82E8F
:10126E00FED7F42FFCD7F52FFAD700D03FEF09F0B9
:10127E0081B044EF09F046EF09F03FEF09F06FEF50
:10128E0005F06FEF05F06FEF05F007EF00F00600C9
:10129E00FACF07F0FBCF08F0E9CF09F0EACF0AF05A
:1012AE00E1CF0BF0E2CF0CF0D9CF0DF0DACF0EF08C
:1012BE00F3CF0FF0F4CF10F0F6CF11F0F7CF12F00E
:1012CE00F8CF13F0F5CF14F044C015F045C016F06A
:1012DE0046C017F047C018F0F2A478EF09F07AEF85
:1012EE0009F083EF09F0F29438C0D7FF000ED66EE6
:1012FE00010E3B6E83EF09F0F2A288EF09F08AEF40
:10130E0009F0AEEF09F0F2920001DD05D8A492EFDC
:10131E0009F094EF09F0A3EF09F00A0E3426000E3F
:10132E003522000EDD6F010E396E010E3A6E010E82
:10133E0028EC0CF0AEEF09F0020E396E010E3A6E8B
:10134E00000E28EC0CF0AEEF09F0AEEF09F0F0A0B5
:10135E00B3EF09F0B5EF09F0DAEF09F0F090020EF5
:10136E000001DD19D8A4BEEF09F0C0EF09F0CFEFF0
:10137E0009F00A0E3426000E3522000EDD6F010E26
:10138E00396E010E3A6E020E28EC0CF0DAEF09F00F
:10139E00020E396E010E3A6E000E28EC0CF0DAEFEA
:1013AE0009F0DAEF09F018C047F017C046F016C082
:1013BE0045F015C044F014C0F5FF13C0F8FF12C07D
:1013CE00F7FF11C0F6FF10C0F4FF0FC0F3FF0EC001
:1013DE00DAFF0DC0D9FF0CC0E2FF0BC0E1FF0AC05F
:1013EE00EAFF09C0E9FF08C0FBFF07C0FAFF4492FD
:1013FE0011001A6E0F0E83160F0E95169694969078
:10140E0096928D948D908D92A8EC0EF0300E5CEC31
:10141E000EF09FEC0EF09FEC0EF0300E5CEC0EF02A
:10142E009FEC0EF09FEC0EF0320E5CEC0EF022EF05
:10143E000AF022EF0AF0CCEC0DF00009D8A42AEF46
:10144E000AF02CEF0AF022EF0AF032EF0AF032EF38
:10145E000AF032EF0AF0CCEC0DF00009D8A43AEF06
:10146E000AF03CEF0AF032EF0AF03EEF0AF01A50A3
:10147E005CEC0EF045EF0AF045EF0AF0CCEC0DF007
:10148E000009D8A44DEF0AF04FEF0AF045EF0AF02D
:10149E0051EF0AF0080E5CEC0EF058EF0AF058EF20
:1014AE000AF0CCEC0DF00009D8A460EF0AF062EF60
:1014BE000AF058EF0AF064EF0AF00F0E5CEC0EF033
:1014CE006BEF0AF06BEF0AF0CCEC0DF00009D8A42C
:1014DE0073EF0AF075EF0AF06BEF0AF077EF0AF090
:1014EE00010E5CEC0EF07EEF0AF07EEF0AF0CCEC13
:1014FE000DF00009D8A486EF0AF088EF0AF07EEF0F
:10150E000AF08AEF0AF0040E5CEC0EF091EF0AF08E
:10151E0091EF0AF0CCEC0DF00009D8A499EF0AF087
:10152E009BEF0AF091EF0AF09DEF0AF0800E19EC96
:10153E000EF0A2EF0AF01200000E1E6E1CBEACEFF3
:10154E000AF0AAEF0AF0B4EF0AF01B6C1C1ED8B01A
:10155E001C2A010E1E6EB4EF0AF01ABEBBEF0AF083
:10156E00B9EF0AF0C3EF0AF0196C1A1ED8B01A2A96
:10157E00010E1E1AC3EF0AF0000E206E000E1F6E33
:10158E001B501C10D8B4CEEF0AF0D0EF0AF004EFC7
:10159E000BF0010E1D6EDAEF0AF0D8901B361C36DA
:1015AE001D2ADAEF0AF01CAEDFEF0AF0E1EF0AF0C7
:1015BE00D4EF0AF0E5EF0AF0E5EF0AF0D8901F3607
:1015CE0020361B50195C1C501A58D8A0F1EF0AF0A7
:1015DE00F3EF0AF0FAEF0AF01B50195E1C501A5A7C
:1015EE001F80FAEF0AF0D8901C321B321D2EE5EF49
:1015FE000AF004EF0BF004EF0BF01E50D8B40AEF14
:10160E000BF00CEF0BF012EF0BF01F6C201ED8B08E
:10161E00202A12EF0BF01FC019F020C01AF018EF9D
:10162E000BF01200000E266E22BE22EF0BF020EF02
:10163E000BF02AEF0BF0216C221ED8B0222A010EDD
:10164E00266E2AEF0BF024BE31EF0BF02FEF0BF0CE
:10165E0037EF0BF0236C241ED8B0242A37EF0BF093
:10166E0023502410D8B43EEF0BF040EF0BF070EF88
:10167E000BF0010E256E4AEF0BF0D8902336243670
:10168E00252A4AEF0BF024AE4FEF0BF051EF0BF083
:10169E0044EF0BF055EF0BF055EF0BF02350215CA0
:1016AE0024502258D8A05EEF0BF060EF0BF066EFDF
:1016BE000BF02350215E2450225A66EF0BF0D89087
:1016CE0024322332252E55EF0BF070EF0BF070EF16
:1016DE000BF02650D8B476EF0BF078EF0BF07EEFD0
:1016EE000BF0216C221ED8B0222A7EEF0BF021C007
:1016FE0021F022C022F084EF0BF01200000E2D6EAE
:10170E00000E2E6E000E2F6E000E306E29502A1017
:10171E002B102C10D8B496EF0BF098EF0BF0D8EFEF
:10172E000BF0010E316EA4EF0BF0D89029362A364D
:10173E002B362C36312AA4EF0BF02CAEA9EF0BF082
:10174E00ABEF0BF09CEF0BF0AFEF0BF0AFEF0BF03E
:10175E00D8902D362E362F3630362950255C2A500D
:10176E0026582B5027582C502858D8A0C1EF0BF0D4
:10177E00C3EF0BF0CEEF0BF02950255E2A50265A00
:10178E002B50275A2C50285A2D80CEEF0BF0D89084
:10179E002C322B322A322932312EAFEF0BF0D8EF0A
:1017AE000BF02DC025F02EC026F02FC027F030C034
:1017BE0028F012001E6ECBCF1BF0BECF1CF0000E19
:1017CE00CAB4010E1D6E070ECA6E0C0EBD6E1E043F
:1017DE00D8A4F4EF0BF0F6EF0BF0FCEF0BF0B40E19
:1017EE00CB6E5A0EBE6E13EF0CF0020E1E18D8A45E
:1017FE0003EF0CF005EF0CF00BEF0CF0500ECB6E70
:10180E00280EBE6E13EF0CF0FA0ECB6E7D0EBE6E72
:10181E0013EF0CF013EF0CF0020E1A6E450E196E4C
:10182E00AA0EE82EFED7192EFCD71A2EFAD71BC0F9
:10183E00CBFF1CC0BEFF1DB002D0CA9401D0CA841B
:10184E001200036ECBCF04F0BECF05F0000ECAB46B
:10185E00010E066E070ECA6E0C0EBD6E0304D8A4E2
:10186E003BEF0CF03DEF0CF043EF0CF0B40ECB6EF3
:10187E005A0EBE6E5AEF0CF0020E0318D8A44AEFA1
:10188E000CF04CEF0CF052EF0CF0500ECB6E280E0D
:10189E00BE6E5AEF0CF0FA0ECB6E7D0EBE6E5AEF88
:1018AE000CF05AEF0CF0020E026E450E016EAA0EEF
:1018BE00E82EFED7012EFCD7022EFAD704C0CBFF9E
:1018CE0005C0BEFF06B002D0CA9401D0CA84120071
:1018DE00DA0EF66E1A0EF76E000EF86E01EE00F0CE
:1018EE0010EE60F00900F5CFEEFFE550E150FAE1A1
:1018FE00720EF66E1D0EF76E000EF86E00EEECF028
:10190E0010EE08F00900F5CFEEFFE550E150FAE1D8
:10191E006A0EF66E1D0EF76E000EF86E00EE3CF0BF
:10192E0010EE08F00900F5CFEEFFE550E150FAE1B8
:10193E0000EE60F08C0EEE6AE806FDE100EE32F08D
:10194E000A0EEE6AE806FDE144904492000EF86E2F
:10195E00080EF76E000137EF04F0000E1F6E000E3A
:10196E001E6E1B501C10D8B4BFEF0CF0C1EF0CF064
:10197E00F3EF0CF0010E1D6ECBEF0CF0D8901B3672
:10198E001C361D2ACBEF0CF01CAED0EF0CF0D2EFB4
:10199E000CF0C5EF0CF0D6EF0CF0D6EF0CF0D890A3
:1019AE001E361F361B50195C1C501A58D8A0E2EF79
:1019BE000CF0E4EF0CF0EBEF0CF01B50195E1C502A
:1019CE001A5A1E80EBEF0CF0D8901C321B321D2ED3
:1019DE00D6EF0CF0F3EF0CF01EC019F01FC01AF08A
:1019EE00120022502310D8B4FFEF0CF001EF0DF0CF
:1019FE002FEF0DF0010E246E0BEF0DF0D890223666
:101A0E002336242A0BEF0DF023AE10EF0DF012EF5C
:101A1E000DF005EF0DF016EF0DF016EF0DF0225054
:101A2E00205C23502158D8A01FEF0DF021EF0DF0B0
:101A3E0027EF0DF02250205E2350215A27EF0DF094
:101A4E00D89023322232242E16EF0DF02FEF0DF008
:101A5E0020C020F021C021F01200000E216E000ED9
:101A6E00226E000E236E000E246E3EEF0DF019A0B6
:101A7E0043EF0DF045EF0DF04FEF0DF01D50212609
:101A8E001E5022221F502322205024224FEF0DF0F1
:101A9E00D8901D361E361F362036D8901C321B327B
:101AAE001A32193219501A101B101C10D8A462EFDA
:101ABE000DF064EF0DF03EEF0DF021C019F022C0D5
:101ACE001AF023C01BF024C01CF012000102010208
:101ADE0001020100010200000101020201020001E7
:101AEE0001000000020202020100010002010201D7
:101AFE0002000200010201020101010094847C6EC9
:101B0E006E7C84007C6E0000626E7C6E7C84009421
:101B1E0094000000626E7C8494009400847C6E7C41
:101B2E008400840094847C6E62524900BBEF0DF0F9
:101B3E00A3EF0DF0A3EF0DF0CCEC0DF00009D8A43F
:101B4E00ABEF0DF0ADEF0DF0A3EF0DF0AFEF0DF02D
:101B5E001AC0F6FF1BC0F7FF0800F5503BEC0EF065
:101B6E001A4A1B2ABBEF0DF01AC0F6FF1BC0F7FF77
:101B7E000800F5500009D8A4C7EF0DF0C9EF0DF01D
:101B8E00A3EF0DF0CBEF0DF012008D848D90B0EC25
:101B9E000EF08D82B0EC0EF083AED8EF0DF0DAEFD2
:101BAE000DF0E9EF0DF08D92B0EC0EF08D82B0ECF1
:101BBE000EF08D928D94010EF6EF0DF0F6EF0DF006
:101BCE00F6EF0DF08D92B0EC0EF08D82B0EC0EF0C3
:101BDE008D928D94000EF6EF0DF0F6EF0DF01200D3
:101BEE001A6E1AC0A9FF19C0A8FFA69EA69CA684AD
:101BFE00000EF2BE010E1B6EF29E550EA76EAA0EC1
:101C0E00A76EA6820BEF0EF0A6B210EF0EF012EF3B
:101C1E000EF00BEF0EF01BB002D0F29E01D0F28E42
:101C2E00A6941200196E0F0E95160F0E83161950EC
:101C3E008009F00B83128D948D90B0EC0EF08D8296
:101C4E00B0EC0EF08D920F0E83161938F00BF00BD0
:101C5E008312B0EC0EF08D82B0EC0EF08D92F00E81
:101C6E0095123AEF0EF01200196E0F0E95160F0E1A
:101C7E0083161950F00B83128D808D94B0EC0EF0FC
:101C8E008D82B0EC0EF08D920F0E83161938F00B7C
:101C9E00F00B8312B0EC0EF08D82B0EC0EF08D9244
:101CAE00F00E95125BEF0EF01200196E0F0E9516D8
:101CBE000F0E83161950F00B83128D948D90B0EC8D
:101CCE000EF08D82B0EC0EF08D920F0E8316193839
:101CDE00F00BF00B8312B0EC0EF08D82B0EC0EF028
:101CEE008D92F00E95127CEF0EF01200C28280EFF4
:101CFE000EF0C2B285EF0EF087EF0EF080EF0EF011
:101D0E0089EF0EF0C4501C6E1B6AC3501B24196E53
:101D1E00000E1C201A6E94EF0EF01200196E19C0F0
:101D2E00A9FFA69EA69CA680A8509EEF0EF01200BC
:101D3E00210E196E760EE82EFED7192EFCD700D086
:101D4E001200620E196E660EE82EFED7192EFCD703
:101D5E001200210EE82EFED700F01200000E1F1FFB
:0C1D6E001F0E0000000E1111110E0000ED
:020000040020DA
:08000000FFFFFFFFFFFFFFFF00
:020000040030CA
:0E000000040C1F1EFF8181FF0FC00FE00F4098
:00000001FF
